:100000000C94E5040C942C050C942C050C948C2E6B
:100010000C942C050C942C050C942C050C942C059C
:100020000C942C050C942C050C94BB270C9477276E
:100030000C94B8280C942C050C942C050C942C05CD
:100040000C942C050C942C050C942C050C942C056C
:100050000C942C050C9494280C942C050C942C05D1
:100060000C942C050C942C050C942C050C942C054C
:100070000C942C050C942C050C942C050C942C053C
:100080000C942C050C942C050C942C050C942C052C
:100090000C942C050C942C050C942C050C942C051C
:1000A0000C942C050C942C050C942C05050109804E
:1000B000A101850319012AB700150126B700950192
:1000C00075108100C0050C0901A101850419012AE0
:1000D000A002150126A002950175108100C005013E
:1000E0000906A1018506050719E029E71500250184
:1000F0009508750181020507190029EF15002501F2
:1001000095F075018102050819012905950575010C
:100110009102950175039101C00660FF0961A1017B
:100120000962150026FF00952075088102096315F4
:100130000026FF00952075089102C005010906A15F
:1001400001050719E029E7150025019508750181CA
:10015000029501750881010507190029FF15002680
:10016000FF00950675088100050819012905950508
:1001700075019102950175039101C0000000000016
:10018000000000000000000000000000000000006F
:100190000000000000000000000000000000007EE1
:1001A0000F00D4FFFFFFC700000078000000000030
:1001B0000000002A2B2800000000000000000000C2
:1001C00000000000000029000000002C1E34202147
:1001D0002224342627252E362D3738271E1F20218E
:1001E00022232425263333362E37381F04050607ED
:1001F00008090A0B0C0D0E0F101112131415161707
:1002000018191A1B1C1D2F3130232D350405060724
:1002100008090A0B0C0D0E0F1011121314151617E6
:1002200018191A1B1C1D2F3130354CFD377A585ABE
:10023000000004E6D6B44602002101160000007456
:100240002FE5A3E00B2E029C5D003D8889C6543645
:10025000C3174FE4E62BD8D4D11E36A3025E0B8918
:100260003D5E8A3FC8E213DD8D4A265299343795A8
:1002700019F87331D47575A86451F083621716A903
:10028000E889F7FB266F9404C83DF40D929411D2CF
:10029000F08750D190AA2995EBF994B3B1529A0006
:1002A0000B70D7D90804222A876D15BAC4F59C4F64
:1002B000D694E8767C9A712F25DB83310C2866D1A1
:1002C0000F773AE4AF1274A3534C030F67672D976F
:1002D0008BA2CD747405BCA967E848B9D89D332CAE
:1002E0002E50BFC028ABE4410F610B03960176246A
:1002F0008F6B863477C54D6C153829DD3BAA7B079B
:10030000979029E28A7FA07E59F54B5F6E0D9AF592
:100310005D3A4779643C33B3D88BF9BEDED9B21E5F
:100320008E2429A2D099B4BDC8952EB9F9EBE984E1
:1003300053262BEBD169BCDA69B819CF2A1F2D10CF
:100340004BF59F0E3040C8712E76BE7EDD9174A7AE
:100350003C92DB308D51898595C219566E2F034E24
:100360006AC1DD4C2E439EECDD9B4BF664FEC8A8B3
:10037000CE300217AC57F3BFA4BA8D700C22ECD963
:10038000ABBB95D153D7B0DDFF2031B8215EC45D42
:10039000A773F56EBE3A9E4A2585AA940E735361E3
:1003A0005348B5C228B2DD01B2696B4EF02F1D690A
:1003B000A0AC46772B9C3E3145E347C827A2902846
:1003C00096462DAE31378004654195A753692E1BA3
:1003D00010CDF4884CBDEEE0CC6114E7DE4A9DBA46
:1003E000E2785FB6FEE0046CA92A5F9011D5D86A66
:1003F000424CFC452A8A3AA07961A7AEFA6D0ADD23
:10040000C61EA87C0B40EDD693C2446B7F48970B69
:100410008B8D2443010E3374F8718E356FF040AF2D
:1004200014258061AE1ADF4C35A6EB496F6150731D
:10043000CB42B0C7B3151C1A9EE6A19ED0CC355254
:100440008E0F5CBE84DA9D70D665602858A747A6DB
:1004500055DC05708817F8CC94AF1DA174DFA6EBAE
:100460004B1C321564CB22CE301C46709973562734
:1004700072D751EFF28B50FE18279A98B0EAF066C7
:10048000BF956B1D005286A45D02BF2156D433FB7D
:100490008F665D5553E08704C3680A02BD3555A8D1
:1004A000FDB51BC6742CE0D9EEA630B426E0AFAA89
:1004B000F6D0B3049E7CDC779FBD2E3BB4FF83CB8C
:1004C000B91CA32AB92601DCAD7BCAE0EEF7EE0D1C
:1004D0007D4A18E708E4F425CC449934AB973DE90C
:1004E0009820194A635600A714F16FB1F7576B00B3
:1004F00001B805AF160000241C8FF0B1C467FB02E1
:100500000000000004595A00000000020001000E23
:1005100000020011000300120004000001010101AB
:1005200001010101010202020202020202020303AE
:10053000030303030303040404040404040505057E
:100540000505060606060607070707070808080840
:10055000090909090A0A0A0B0B0B0C0C0C0D0D0DED
:100560000E0E0E0F0F0F1010111111121213131483
:1005700014151516161717181819191A1A1B1B1CFB
:100580001D1D1E1E1F202021222223242425262655
:10059000272829292A2B2C2D2D2E2F30313232338A
:1005A0003435363738393A3B3C3D3E3F4041424393
:1005B0004445464748494A4C4D4E4F505153545577
:1005C0005658595A5B5D5E5F616264656668696B27
:1005D0006C6D6F7072737577787A7B7D7E808283A5
:1005E0008587888A8C8E8F91939596989A9C9EA0E9
:1005F000A2A3A5A7A9ABADAFB1B3B5B7BABCBEC0F6
:10060000C2C4C6C9CBCDCFD1D4D6D8DBDDDFE2E4BE
:10061000E7E9EBEEF0F3F5F8FAFDFF000000001754
:1006200000150008001A0014002B00000000000A4A
:1006300000090007001600040029613900091405AB
:1006400000190006001B001D00E10003512C0028CA
:1006500064E3000551000000000000000000001CE1
:100660000018000C0012001300E600000000000B50
:10067000000D000E000F003300347104510A1411F4
:10068000001000360037003800E50002512A000152
:1006900054E7006500000000000000000000008931
:1006A0005F815F805F010004140100000000000111
:1006B00000915F8D5F8C5F855F010001000100018B
:1006C00000925F8F5F16148A5F0100010001000134
:1006D0000001000100000000000000000000008890
:1006E0005F825F835F845F8B5F0100000000000119
:1006F0000001008E5F875F935F01000100010090A1
:100700005F01000100010001000100010001000182
:100710000001000100000000000000000000004B8C
:10072000004A0052004D00A9004C00000000004E9D
:10073000004F0051005000AA004900470001004846
:1007400000AB00AE00AC00A80046000100010001B3
:100750000001000100000000000000000000000196
:100760000001000100010001000100000000000183
:1007700000E500E400E200E70001000100010001E3
:100780000001000100010001000100010001000161
:100790000001000100000000000000000000002235
:1007A00002210220021F021E022314000000002D5D
:1007B0000233141B14191434021E14010005140909
:1007C0001438003500370214141A14010001000116
:1007D00000010001000000000000000000000023F4
:1007E0000224022502260227022D0000000000201C
:1007F0001464006402300232021E00010011140A67
:10080000143802360037002F0236020100010001C1
:1008100000010001000000000000000000000001D5
:1008200000450044004300420001000000000001B8
:1008300000410040003F003E0001000100010001B6
:10084000003D003C003B003A0001000100010001B6
:100850000001000100000000000000000000000195
:100860000001000100010001000100000000000182
:1008700000E500E400E200E70001000100010001E2
:100880000001000100010001000100010001000160
:100890000001000100000000000000000000000155
:1008A0000001000100010001000100000000000142
:1008B0000001000100010001000100010001000130
:1008C0000001000100010001000100010001000120
:1008D0000001000100000000000000000000000115
:1008E000000100010001000100010000000000C241
:1008F0005CC75CC55CC95CC35C0100010001000110
:1009000000C85CC65CCA5CC45C0100010001000157
:10091000000100010000000000000009025B00036C
:100920000100A0FA090400000103010100092111DE
:1009300001000122400007058103080001090401AC
:10094000000203000000092111010001222200071A
:1009500005820320000107050303200001090402AA
:10096000000103000000092111010001226D0007B0
:1009700005840320000112010002000000081D8D03
:100980009D9D0100010203011C03760069006100C6
:100990006C003A00660036003400630032006200EA
:1009A0003300630000000C034B0079007200690003
:1009B000610000001003730070006C006900740097
:1009C0004B00420000000403090411241FBECFEFB6
:1009D000DAE0DEBFCDBF04B603FE27C08091E80396
:1009E0009091E903A091EA03B091EB038730904B1B
:1009F000A740B04BD1F41092E8031092E903109293
:100A0000EA031092EB0314BE84B7877F84BF0FB64E
:100A1000F894A8958091600088618093600010929E
:100A200060000FBEE0E0F8E3099512E0A0E0B1E05D
:100A3000ECEFF3E602C005900D92AA35B107D9F7A5
:100A400023E0AAE5B2E001C01D92A83EB207E1F79B
:100A50000E94DF280C94CA310C940000FC01AC0108
:100A60004C5F5F4F8FEF91E32191822728E030E0C8
:100A700087FF09C0880F892721503109C9F7E4177A
:100A8000F50791F70895880FF7CFE8EDF0E0808142
:100A90008E7F80831092E2001092DA001092E100C3
:100AA000A0EEB0E08C9181608C9380818F77808301
:100AB00019BCA7EDB0E08C918E7F8C9380818F7EE6
:100AC00080831092B30308952091E4003091E500F3
:100AD00095E6A9012091EC00822F817020FF06C0CD
:100AE0008091E80080FF06C080E008952091E80032
:100AF00022FD1AC08091D903882389F0853089F0BE
:100B00008091EB0085FD0FC02091E4003091E5005D
:100B100042175307F9F29150E1F684E0089582E01C
:100B2000089583E0089581E00895EF92FF920F9376
:100B30001F93CF937C018B010E946405C82F811104
:100B400017C08091E80085FD0BC08091E8008E778A
:100B50008093E8000E946405882399F3C82F08C099
:100B6000F70181917F018093F1000150110949F74C
:100B70008C2FCF911F910F91FF90EF90089580914E
:100B8000DB0387FF13C08091E80082FF06C08091DD
:100B9000E8008B778093E80004C08091D90381112D
:100BA000F2CF08958091D9038823D9F38091E8008A
:100BB00080FFF8CF8091E8008E77ECCF982F90934C
:100BC000E900242F762F50E0891731F07091EC0066
:100BD0002091ED005091F00021FD07C09F5F9730FC
:100BE00071F78093E90081E008953091EB003E7F3A
:100BF0003093EB003091ED003D7F3093ED0030916C
:100C0000EB0031603093EB007093EC002093ED002B
:100C10005093F0002091EE0027FDE0CF80E0089592
:100C2000CF92DF92EF92FF920F931F93CF93DF93B8
:100C3000C8EDD0E088818F7E8883E7EDF0E0808189
:100C40008160808384E082BF81E08093B3038881E8
:100C50008E7F888302EE10E0F80110821092DA0095
:100C600081EEC82ED12CF601108288818F7788837F
:100C700088818068888388818F7D888319BC1092E1
:100C8000D9031092DA031092D8031092D70390EE92
:100C9000E92EF12CF70180818B7F80838881816030
:100CA000888342E060E080E00E94DE05F6018081FA
:100CB0008E7F8083F801808181608083808188605D
:100CC0008083F70180818E7F808388818061888323
:100CD000DF91CF911F910F91FF90EF90DF90CF9018
:100CE0000895FC018091E1039091E2038617970734
:100CF000A0F06115710529F49091E8009E7790931A
:100D0000E80090E06115710551F4911108C08091DF
:100D1000E80082FF34C080E00895BC01F2CF8091EA
:100D2000D9038823C1F18530C1F18091E80083FDAA
:100D300030C08091E80082FDEACF8091E80080FF1A
:100D4000E1CF8091F3002091F200382F61157105F9
:100D500019F02830310558F091E02830310509F0BC
:100D600090E02091E8002E772093E800CBCF81918E
:100D70008093F100615071092F5F3F4FE7CF809161
:100D8000D903882341F0853041F08091E80083FF4A
:100D9000BECF81E0089582E0089583E0089508952C
:100DA00008958091B6030895CF92DF92EF92FF925B
:100DB0002FB7F894C090AA03D090AB03E090AC0397
:100DC000F090AD032FBFA7019601261B370B480BF0
:100DD000590BCA01B901FF90EF90DF90CF900895B1
:100DE0002FB7F8946091AA037091AB038091AC0384
:100DF0009091AD032FBF08952FB7F8948091AA0367
:100E00009091AB03A091AC03B091AD032FBF0895B7
:100E1000209170012223C1F02091AE0327FF14C05E
:100E2000E62FE695E695E695EE31F8F4E80FF92F12
:100E3000F11D677021E030E001C0220F6A95EAF7EA
:100E40008281822B82830895FC0132962FEF30E05D
:100E50004191641751F02F3F19F4411101C0232F24
:100E60003F5F3630A9F72F3F09F40895820F911D97
:100E700027FD9A95FC01628308952091A703309184
:100E8000A8032817390771F09093A8038093A7034C
:100E9000E091A503F091A603309721F00084F1853D
:100EA000E02D099408952091A3033091A4032817FD
:100EB000390771F09093A4038093A303E091A503F5
:100EC000F091A603309721F00680F781E02D099478
:100ED0000895CF92DF92EF92FF92CF93DF93EC01D0
:100EE000C0909703D0909803E0909903F0909A03F4
:100EF000C701B6010E94D406643F71408105910587
:100F0000F8F4C0929303D0929403E0929503F09288
:100F1000960384EF91E0A0E0B0E080938F0390937C
:100F20009003A0939103B0939203D0939F03C09337
:100F30009E03DF91CF91FF90EF90DF90CF900895C7
:100F40000E94F0066093930370939403809395033B
:100F50009093960382E390E0A0E0B0E0DECFFC0146
:100F60008481862351F492819923B9F06923808585
:100F700083FF05C081E061110FC080E00895892FD3
:100F80008F7092959F70982B862F8F7062956F70DF
:100F9000682B81E09613F1CF089581E0FDCFFA012F
:100FA000811101C0FB010994EBE4F3E0248130E1FD
:100FB000231B08F420E0248380914A0381608093FE
:100FC0004A030895EBE4F3E0248130E1230F08F4B1
:100FD0002FEF248380914A03816080934A03089510
:100FE00090914B03937071F080934C0360934D0389
:100FF0004B3A08F04AEA40934E0380914A03822B11
:1010000080934A030895EBE4F3E0438120E1421B1F
:1010100008F440E0818121E0628190E00C94F007C7
:10102000EBE4F3E0438120E1420F08F44FEF8181CC
:1010300021E0628190E00C94F007EBE4F3E0628140
:1010400020E1621B08F460E0818121E0438190E0AF
:101050000C94F007EBE4F3E0628120E1620F08F406
:101060006FEF818121E0438190E00C94F007EBE485
:10107000F3E0818121E0438162818850990B0C94D7
:10108000F007EBE4F3E0818190E021E043816281AD
:1010900008960C94F00790914B03937061F08111C6
:1010A0000BC0946090934B0310926D0180914A03A2
:1010B000862B80934A030895853010F09061F2CF1B
:1010C000880F880F982BEECF80914B0386958695DD
:1010D000815009F484E061E00C944B0880914B034B
:1010E000869586958F5F853008F081E061E00C94ED
:1010F0004B088093690180914B0383708093680152
:101100000E94320F83E080936D0108950C94D30FF9
:10111000FF920F931F93CF93DF93182F062FF42E78
:10112000D0E0C0E02F2D402F612FCE010E94860815
:101130002196C431D105B1F7DF91CF911F910F9165
:10114000FF900895AC018230910508F408959FEF57
:10115000413E8EE1580740F49A0195E03695279577
:101160009A95E1F798E0920F61E0E62FE90FFF27EB
:10117000FF1F9F0135952795822F229FF001239F06
:10118000F00DF00D11244E175F0738F49FEF920F0A
:10119000961758F78FEF860F08952F3FE9F361E018
:1011A000620FF6CF0F93CF93DF93D72FC82F47FD52
:1011B000419588E390E0841B910947FD9395889FB2
:1011C000B001899F700D700D1124229FC001239FD3
:1011D000900D900D1124860F971F0E94A208982F42
:1011E000990F890F682F600F7D2F8C2FDF91CF9182
:1011F0000F910895AF92BF92CF92DF92FF920F931B
:101200001F93CF93DF93362F472FE82FF0E0E55E53
:10121000FA4F71110FC0E4918E2F2E2F6E2F722F67
:10122000DF91CF911F910F91FF90DF90CF90BF90F2
:10123000AF900895C72FD0E02491F22E022F10E036
:1012400056E0659FC0011124EFEFF0E0BF010E945E
:101250000630832F90E0880F991F35E5369FD00127
:10126000379FB00D11248A1B9B0B982F990F980F55
:101270006F01CC1ADD0AC09ED001C19EB00DD09E78
:10128000B00D11248B2F499FA0011124452F552704
:101290006F01C41AD50AC09EA001C19E500DD09EF8
:1012A000500D11245F01A91AB108AC9E6001AD9EDA
:1012B000D00CBC9ED00C1124CD2CDD24EC19FD09E2
:1012C000E09FE001E19FD00DF09FD00D1124ED2FA4
:1012D00062307105A1F050F46115710509F49ECFDB
:1012E0006130710581F0EB2F852F98CF6430710547
:1012F00069F080F06630710509F490CFF4CFE22FE9
:101300002B2F8D2F8BCFE22F252F88CFEB2F822FE6
:101310002D2F84CF2B2F8F2DE52F80CF80E00895A8
:1013200078940895F894E82FE295EF70F0E031A1F9
:10133000282F2F7081E090E001C0880F2A95EAF7EE
:10134000982F9095932391A392A1892B82A30C941B
:1013500090099091AE0392FF06C0282F2871283083
:10136000F9F4877F846093FF06C0282F2871283105
:10137000F1F4877E84612091AF0320FF06C0382FEF
:1013800038713830D9F4877F816021FF06C0282F5B
:1013900028712831D1F4877E816194FD877E08957C
:1013A000282F24712430F9F68B7F8860DCCF282F1A
:1013B0002471243101F78B7E8861DDCF382F3171A4
:1013C000313019F78E7F8860E0CF282F21712131CD
:1013D00021F78E7E8861E1CFCF93DF93EC018238D5
:1013E0009105A9F1D8F58133910509F496C048F526
:1013F0008932910509F48AC08A9709F495C0C1150C
:1014000022E5D20708F0B6C0C11531E5D30708F0D0
:1014100026C1C83ED10508F09CC0C03ED10560F58C
:10142000C83AD10508F087C0C53AD10508F0EFC029
:10143000C130D10509F12097F9F0C430D105E0F4AD
:1014400040C08533910509F45AC0C997C1F680910F
:10145000AE03837089F0C0EED0E00EC0833E9105EC
:1014600099F170F4803E910501F1823E910539F6C3
:101470008091AE0382FD21C0CE01DF91CF9108950E
:10148000863E910561F1873E910571F1843E91059B
:1014900009F0B5CF8091AF0381FFEECF8091AE030D
:1014A000C7EED0E084FD0DC0E7CF8091AE0380FD94
:1014B00007C19091AF0390FFDFCFC3EED0E084FF70
:1014C000DBCFD0E0C0E0D8CF8091AE0382FDFBC07F
:1014D0009091AF0390FDBFCF84FFCECFF2CF80912C
:1014E000AE0383FDDDCFC8CF8091AE0383FDEEC098
:1014F0009091AF0391FFF0CFC4EED0E0BDCF8091CB
:10150000AE0385FFB9CFC9E2D0E0B6CF8091AE037C
:1015100085FFB2CFC5E3D0E0AFCF8091AE0386FFA9
:10152000ABCFCAE2D0E0A8CF8091AE0386FFA4CFB4
:10153000C1E3D0E0A1CFCF3BD10518F6C85AD0E027
:10154000CC0FDD1FC257DE4F0990D881C02DD46467
:1015500093CFC11540E5D40708F064C0C11580E4FD
:10156000D80708F05CC0CE019A9581159F4108F418
:1015700083CFA7CFC11536E5D30718F5C11545E5CB
:10158000D40708F084C0C11584E5D80708F07AC0F4
:101590009C2F969596959E0123703327C115D345B0
:1015A00008F462C0C1E0D0E002C0CC0FDD1F2A9574
:1015B000E2F730E2939FC0011124C82BD92BDA68DF
:1015C0005BCFC1158AE5D80778F4C11599E5D9072D
:1015D00008F068C0C11528E5D20708F472CFDC2FE7
:1015E000CC27C06FD06A48CFCE019056811590426B
:1015F00008F067CF8D2F8F710E94A90990E0982F76
:10160000882788279F719C012C2BE90149C0C55A66
:10161000D0E0C557DE4FC881D0E0D0642DCFDF7059
:10162000D06A2ACFCE01E4E096958795EA95E1F756
:1016300083702C2F26952695237040E2249F9001DD
:101640001124382B8C2F8370C1E0D0E002C0CC0F66
:10165000DD1F8A95E2F7C22BD32BDC680DCFDC2F80
:10166000CC27C16FD06A08CFC1E0D0E002C0CC0F58
:10167000DD1F2A95E2F720E2929FC0011124C82BBA
:10168000D92BEBCFDC2FCC27C46FD06AF5CE8C2FB3
:101690000E94A909C82FD0E0DC2FCC27CC27DF710E
:1016A000D062EACE8C2F8F700E94A90934E0D695C3
:1016B000C7953A95E1F7CF709C2FEC01D069DCCE4D
:1016C000C9E3D0E0D9CEC2EED0E0D6CEC6EED0E0AF
:1016D000D3CE8091D702882331F01092D702109296
:1016E000D6021092D5020895CF93C82F8091AF03F0
:1016F00082FD0CC08091D7028C1741F00E94FC063D
:101700009093D6028093D502C093D702CF910895CB
:1017100080959091B40398239093B4030895809199
:10172000B4039091D402892B9091D302892B80939A
:101730005C028091D702882329F10E94FC06209147
:10174000D5023091D602821B930B8838934110F05A
:101750000E94690B80915C029091D702892B809343
:101760005C0280917001882389F18091AE0387FF2C
:101770002DC08EE1EEE5F2E090E0815048F5911148
:101780000E94690B80919B03809590915C02892354
:1017900090919C03892B80935C02E091A503F091CA
:1017A000A6033097D1F090917001992349F0909160
:1017B000AE0397FF05C080935D0286E080935C02D4
:1017C0000280F381E02D8CE592E0099486E0D2CF8F
:1017D0002191222391F29F5FD0CF08951092D202DF
:1017E0001092D1021092D00208958091CF028111FF
:1017F0001092CF020895909170019923D1F09091A9
:10180000AE0397FF16C0E82FE695E695E695EE3114
:10181000E0F4F0E0E45AFD4F282F277081E090E0DB
:1018200001C0880F2A95EAF78095928189238283E7
:101830000895EEE5F2E09191891303C0DF0111975D
:101840001C9292E0E436F907B1F708952091CE0298
:1018500090919D0256E0291302C080E0089530E087
:10186000529FF001539FF00D1124E256FD4F7181FC
:10187000761306C07081781303C07281741304C09C
:101880002F5F3F4F2770E7CF81E00895452B39F058
:10189000682381E06F3F09F080E08170089581E066
:1018A000FCCF8091CE0290919D02981301C00895C3
:1018B0008F5F8770FACF9E3F49F1990F990F990F6B
:1018C000E92FE80F9E2F9770E695E695E69583E061
:1018D000E89FF0011124E158FD4F50E040E080E026
:1018E000219130E0092E02C0369527950A94E2F73F
:1018F00021703327042E01C0220F0A94EAF7822BAD
:101900004F5F5F4F4330510559F7089580E00895C8
:101910009E3F69F1990F990F990FE92FE80F8E2FCC
:10192000877041E001C0440F8A95EAF7E695E69595
:10193000E69583E0E89FF0011124E158FD4F30E087
:1019400020E070E05191DF011197CB01022E02C01F
:10195000969587950A94E2F781708195852784236F
:1019600085278C932F5F3F4F2330310559F708951A
:1019700090E080E00E94530790E080E00E943D07E5
:101980001092D4021092D3020C948F0B8093E30335
:101990000C94B80C8091E303982F9670963019F44C
:1019A00088600C94C60C877FFCCF21E030E001C03A
:1019B000220F8A95EAF720958091E30382230C9405
:1019C000C60C9091D202809589238093D202282F51
:1019D000277091F4282F082E000C330B9217130652
:1019E00059F09091AF0392FD07C085958595859537
:1019F0000E94D50C0C94EE0B089521E030E001C05C
:101A0000220F8A95EAF78091E303822B0C94C60C8F
:101A10009091AF0392FD10C098E0899F900111242E
:101A2000622B6093D2020E94FD0C0E94FC069093F0
:101A3000D1028093D00208950C94FD0C809344034E
:101A40000C94B80C882341F080959091D40289239E
:101A50008093D4020C948F0B0895882339F09091D1
:101A6000D402982B9093D4020C948F0B0895882362
:101A700021F00E94880B0C948F0B0895882339F075
:101A80009091B403982B9093B4030C948F0B08950A
:101A9000882329F19CEF980F913A20F40E94FB0BC8
:101AA0000C948F0B90E2980F983050F4877091E06F
:101AB00001C0990F8A95EAF7892F0E94880BF0CF11
:101AC0009BE5980F933020F490E080E00C9453074E
:101AD000885A873120F490E080E00C943D07089507
:101AE000FF920F931F93CF93DF93F82E0091A003E3
:101AF0001091A1030115110509F449C010929F032B
:101B000010929E0310929B0310929C03D80116968C
:101B1000CD91DC919E013A9521153F4108F4D07E8C
:101B2000D1E0C11101C0D0E0D8011996ED91FC912E
:101B30001A97309731F01B966D917C9180E0099552
:101B4000D823DD2339F08CEF8C0F813A38F58C2FB8
:101B50000E94FB0BFF2099F0E091A003F091A103FC
:101B6000808584FD0CC080919D03882341F0808195
:101B700091819C0121503109243A3D45A8F00E94F1
:101B80008F0B1092A1031092A00310929D03C80125
:101B9000DF91CF911F910F91FF9008950E948F0BBD
:101BA0008C2F0E94480DD6CF0E946907E8CFCF93B3
:101BB000C82F882309F465C08CEF8C0F813AB0F5EB
:101BC00080917001882301F18091AE0387FF1CC0D2
:101BD000EC2FE695E695E695F0E0E45AFD4F82811C
:101BE00090E04C2F477021E030E002C0220F331FFD
:101BF0004A95E2F782239323892B81F08C2F0E9450
:101C0000FB0B0E948F0B0AC0EEE5F2E084E692E047
:101C10002191C21799F38E179F07D1F76C2F8CE58E
:101C200092E00E940807CF910C948F0B80E28C0FFA
:101C3000883068F4C77021E030E001C0220FCA95F7
:101C4000EAF78091B403822B8093B403ECCFEBE5E9
:101C5000EC0FE33040F4F0E0E557FE4F808190E078
:101C6000CF910C945307C85AC73158F4EC2FF0E0C9
:101C7000EE0FFF1FE257FE4F80819181CF910C94B0
:101C80003D07CF910895982F92959F7011F0892F5D
:101C900094E0282F2695269511F09E5F822F869539
:101CA00009F09F5F892F08959C013A9521153F41C6
:101CB00050F5FC01EE27F170BC0166277270AC0193
:101CC000442754709C012227387094FF0EC080E195
:101CD000EF2B09F480E0672B09F08062452B09F0B7
:101CE0008064232B89F08068089581E0EF2B09F44C
:101CF00080E0672B09F08260452B09F08460232B7C
:101D000019F08860089580E00895CF93DF93EC0187
:101D10000E94540E9E01205E31092830310510F0DA
:101D2000209739F40E943E0D8C2FDF91CF910C94B7
:101D3000D70D0E942D0DF8CF8093B0037093B2039E
:101D40006093B1038091D9038430F9F48093E90062
:101D50008FEF9091E800815095FD06C095ED9A9522
:101D6000F1F700008111F5CF8091E80085FF0DC0EB
:101D700050E040E063E070E080EB93E00E94950566
:101D80008091E8008E778093E8000895BC0184E09C
:101D90000C949C0EBC0183E00C949C0ECF93DF93BB
:101DA000EC01809170018823B1F18091AE0387FF2F
:101DB00032C060E284E08093E9008FEF9091E80008
:101DC000815095FD06C095ED9A95F1F700008111BF
:101DD000F5CF8091E80085FF1BC08091700170E015
:101DE00050E040E0811104C050E040E068E070E065
:101DF000CE010E9495058091E8008E778093E800DF
:101E000080E2FE01A7EBB3E001900D928A95E1F725
:101E1000DF91CF91089568E081E0CDCF81E080939C
:101E2000E00080E28093D8001092C9008FE19EE428
:101E30000197F1F700C0000087E090EBDC01809390
:101E4000E8039093E903A093EA03B093EB0388E1DE
:101E50009CE00FB6F894A895809360000FBE909315
:101E60006000FFCF539A3BB1377F2BB128604FB74B
:101E7000F89481E593E0FC015191CF0168E02BB922
:101E8000000000C057FF3BB9550F000000C000C064
:101E900000C03BB900C06A9591F7F3E08D389F0709
:101EA00051F74FBF8FE594E00197F1F700C00000B4
:101EB00008959F92AF92BF92CF92DF92EF92FF92DE
:101EC0000F931F93CF93DF937C015B016A01809195
:101ED0001B0301E010E08A3010F40AE010E0C1E0DA
:101EE000D0E0F894B501C701F6010995982E0E943B
:101EF0009009911004C021960C171D076CF4892DD0
:101F0000DF91CF911F910F91FF90EF90DF90CF90D5
:101F1000BF90AF909F900895CC9F9001CD9F300DC2
:101F2000300D112490E080E045E34A95F1F7000080
:101F3000019682179307C1F7D4CF8091E3028111F4
:101F400010C08091D80080618093D8008AE18A9582
:101F5000F1F700C08091D90080FF0AC081E0809332
:101F6000E30281E09091E302913009F080E008956E
:101F700082E08093E3020E9445051092D903F1CFDD
:101F80000E949D0F811103C08091A2030895E091EA
:101F9000A503F091A603309721F00190F081E02D88
:101FA000099480E00895FF920F931F93CF93DF93DE
:101FB000EC01F62E042F122F0E949D0F81110FC0ED
:101FC000CA30D10564F02A97FE01EE0FFF1FEC0F17
:101FD000FD1FEF5AFC4FF1820083128307C00E945D
:101FE0009D0F882389F3CA30D10574F3DF91CF9117
:101FF0001F910F91FF900895CF93C82F0E949D0FBE
:10200000882329F081E0CA3028F080E003C081E015
:10201000C431D8F7CF910895CF92DF92EF92FF921B
:102020000F931F93CF93DF93182F80916901811332
:1020300042C090914B0393702091680130E081E0A1
:102040009217130609F480E0817080936C018091EF
:10205000500390916B01981739F080936B0140E029
:1020600060E080E00E948808123009F4A8C028F5DA
:10207000112309F460C0113009F468C080E0909128
:102080006A019F5F90936A0181110CC082E0809386
:102090006D0180916C01811105C0111103C083E0B5
:1020A00080936D01DF91CF911F910F91FF90EF9081
:1020B000DF90CF90089581E0C7CFC0916A011330BF
:1020C00009F4CAC01430D1F6CC0FCC0F54E0F52E71
:1020D000FC0E24E12F1510F444E1F42E0E949D0F14
:1020E000882329F03AE03F1510F43AE0F32E0E94DD
:1020F0009D0F811103C0CA3008F4CAE04091450326
:102100005091460320914F03269590E080E0429F36
:10211000812D529F800D911D1124E82ED0E0CE011B
:10212000880F991FFC01E25FFD4F6F01CF1508F486
:10213000FCC08F2D31C080916C01882309F49FCFA2
:1021400040E060E080E00E94880898CFC0916A017A
:10215000CC0FCC0F04E00C0F053108F004E10E9415
:102160009D0F882319F00B3008F00AE00E949D0FA4
:10217000811103C0CA3008F4CAE060914C03709129
:102180004D0380914E030E94FA08F62EE72ED82EBA
:10219000D0E0C01720F0802F0E94FC0F70CFFE010E
:1021A000EA5CFD4F808190916B01892331F02D2DE8
:1021B0004F2D6E2DCE010E9486082196EACFC09148
:1021C0006A01CC0FCC0F04E00C0F053108F004E1DC
:1021D0000E949D0F882319F00B3008F00AE00E943E
:1021E0009D0F811103C0CA3008F4CAE020914F034B
:1021F0002695269531E0230F08F42FEF40914503F3
:102200005091460390E080E0429F812D529F800DC7
:10221000911D1124F82ED0E0C01708F0BCCFFE01AC
:10222000EA5CFD4F808190916B01892399F0709158
:102230004D03FE01EE0FFF1FE25FFD4F60816F193E
:1022400080914E030E94FA08462F282F672FCE0157
:102250000E9486082196E0CFCC0FCC0F04E00C0F33
:10226000053108F004E10E949D0F882319F00B301E
:1022700008F00AE00E949D0F811103C0CA3008F4E3
:10228000CAE0409145035091460320914F032695A3
:1022900090E080E0429F812D529F800D911D11247E
:1022A000F82ED0E0F3E0DF2EC01708F074CFFE0167
:1022B000EA5CFD4F808190916B018923A1F1CE01F1
:1022C000880F991F82539E4FFC01E05CFF4F4081B5
:1022D0004057550B8F5B9F4FFC0120812052330BE1
:1022E000449FB001459F700D700D1124229FC001C5
:1022F000239F900D900D1124860F971F0E94A20816
:1023000090914D038D9DB0011124759567956F0DCA
:10231000792F80914E030E94FA08462F282F672FAD
:10232000CE010E9486082196BFCFFE01EA5CFD4FD8
:10233000808190916B018923C1F0F60121812052A7
:10234000330B40814057550B60914C0370914D0306
:1023500080914E030E2D0E94D2080E94FA08462F4B
:10236000282F672FCE010E948608F2E0CF0ED11CE5
:102370002196DCCE0F931F930E949D0F882321F09E
:102380001F910F910C94F0060E94F00600911C031F
:1023900010911D0320911E0330911F03600F711FC8
:1023A000821F931F1F910F9108951F93CF93DF9367
:1023B000182FD0E0C0E0893311F4C0E5D0E0812FC0
:1023C0000E94D70D209731F4812FDF91CF911F917B
:1023D0000C94480D8FE99FE00197F1F700C00000D1
:1023E0002197F0CFAF92BF92CF92DF92EF92FF9200
:1023F0000F931F93CF93DF93EC018AE0A82E2881DF
:10240000222309F48CC02130C9F599818A81913049
:1024100021F422960E94D51105C0923029F422960B
:102420000E94D70D2196EBCF933021F422960E9483
:10243000480DF8CF943011F02196F4CF229630E079
:1024400020E0AE014F5F5F4F8053990B8A309105BA
:1024500050F02150310930F38FE99FE00197F1F7F7
:1024600000C00000F6CFA29EB001A39E700D112403
:102470009C01260F371F8981EA01E3CFE22FF0E0AC
:10248000E555FE4FB490822F86958695869590E00F
:10249000FC01E556FE4FE4902770F12C022E02C09D
:1024A000F594E7940A94E2F731E0E322FF24FC017B
:1024B000E557FE4FC490D12C022E02C0D594C7948C
:1024C0000A94E2F731E0C322DD24FC01E558FE4F17
:1024D000049110E002C0159507952A95E2F7017066
:1024E0001127E114F10419F081EE0E94D70DC114F7
:1024F000D10419F086EE0E94D70D8B2D0E94D511C4
:10250000CD2819F086EE0E94480DEF2819F081EED3
:102510000E94480D012B09F485CF8CE27BCFDF911F
:10252000CF911F910F91FF90EF90DF90CF90BF90D0
:10253000AF900895FF920F931F93CF93DF93082FCF
:10254000D62F172FF090B403C091D70282E20E94D9
:10255000880B8C2F827261F08C2F8D7D8093D70237
:10256000882301F10E94FC069093D6028093D50245
:102570008D2F912F0E94850E8D2F0E94480D8D2F3B
:10258000912F0E94540E0E94220DF092B4038C2FC2
:102590000E94740B802FDF91CF911F910F91FF90BC
:1025A0000C94D51190E080E0DFCFCF93DF93C7E2AA
:1025B000D3E060E0CE010E94A6312196C11584E0EF
:1025C000D807B9F7DF91CF9108950F931F93CF9359
:1025D000DF938901863058F5683048F5483038F582
:1025E00001152CE5120731F420916E0130916F0135
:1025F000232BE9F090E1699FE001112450E0440FA2
:10260000551FC40FD51F20E8829FC0011124C80F99
:10261000D91F612FCE0187960E94A631602FCE016F
:102620008896DF91CF911F910F910C94A631DF9185
:10263000CF911F910F9108958F929F92AF92BF9269
:10264000CF92DF92EF92FF921F93CF93DF93809010
:102650006E0190906F0181E090E090936F01809304
:102660006E018BE1C82E86E0D82ED0E07601C0E066
:1026700014C0F50125913491412F6C2F8D2F0E94AC
:10268000E51282E0A80EB11C1F5F183091F780E1BF
:10269000E80EF11CCF5FC83019F0570110E0E9CF08
:1026A000DF5F80E8C80ED11CD63001F790926F0131
:1026B00080926E01DF91CF911F91FF90EF90DF909C
:1026C000CF90BF90AF909F908F900895CF93C82FD9
:1026D0006FEF81116FEA83E290E00E94A6316FEF05
:1026E000C1116CEF84E290E00E94A6316FEFC1113E
:1026F00064E385E290E0CF910C94A63180E00E94E3
:10270000661360E086E290E00E94A6310E941C13EE
:102710000E94D51281E00C946613CF93C091AF0351
:10272000C2FB992790F9981799F080FBC2F9C093E2
:10273000AF036091AE0384E090E00E94A6316C2F5D
:1027400082E290E00E94A63182E0CF910C94E10CED
:10275000CF9108950F931F93CF93DF93863038F571
:10276000683028F5483018F520E1629F8001112477
:1027700050E0440F551F040F151F30E8839FC00120
:102780001124080F191FC80187960E948831C82F8D
:10279000D0E0DC2FCC27C80188960E9488319E01AA
:1027A000282BC901DF91CF911F910F91089590E0DF
:1027B00080E0F8CF462F20918D0330918E03232B9C
:1027C00049F4863038F4783028F4683018F4672FEC
:1027D0000C94AA1390E080E00895CF92DF92FF92CC
:1027E0000F931F93CF93DF936C010091E3038091CC
:1027F0004403082BC7E0D0E010E0FC2EC8010C2EEB
:1028000002C0959587950A94E2F780FD0CC0219748
:10281000A0F7F12C8F2DDF91CF911F910F91FF9099
:10282000DF90CF900895B6018C2F0E94DA130E949A
:10283000EC09019761F3EECFCF93DF93EC010E9497
:10284000ED13BE010E94DA13DF91CF910C94EC09D5
:10285000FC01808191810E941C14292F2F70929578
:102860009F7092509E3078F4E92FF0E0E453FE4CD4
:102870000C941A30803F19F020F4883E20F481E057
:102880000895843FE1F380E00895883EC0F3813FDE
:10289000D1F7F5CF822F86958695869508951F935B
:1028A000CF93DF9300D000D00F92CDB7DEB725E0F5
:1028B000FC01DE01119601900D922A95E1F7FC01D1
:1028C000228189819A812223B9F06623A9F00E948E
:1028D000ED13182F682F89819A810E94880C6981D5
:1028E0007A81812F0F900F900F900F900F90DF91B2
:1028F000CF911F910C94DA130E945B0C182FEFCF2D
:1029000083E290E00E9488318F3A89F484E290E07B
:102910000E9488318C3F59F485E290E00E94883112
:1029200091E0843309F090E0892F8170089580E070
:10293000FCCF46E050E06CE170E08BE493E00E9455
:10294000963110924A030895CF92DF92EF92FF9250
:10295000CF930E94BA116093400370934103809318
:1029600042039093430320914903C0E0211108C022
:1029700020914B03C22FC37019F0C22FC695C69584
:1029800020916D012130E1F0222361F0223009F421
:102990005FC0233009F464C0CF91FF90EF90DF90C7
:1029A000CF90089510926A01609345037093460397
:1029B000809347039093480381E080936D01ECCFAF
:1029C0008C2F0E940C10CC2339F30E94C00F81FF82
:1029D0000BC00E949D0F882339F02FEF4FEF6FEF50
:1029E00088E090E00E9486089091E3038091440380
:1029F000892B0E94430E823099F0833069F60E9441
:102A00009D0F8111C9CF20E04FEF60E08AE090E098
:102A10000E94860820E04FEF60E08BE090E011C05C
:102A20000E949D0F882309F4B7CF20E040E06FEFAC
:102A300090E080E00E94860820E040E06FEF81E0B7
:102A400090E0CF91FF90EF90DF90CF900C948608AC
:102A50008C2FCF91FF90EF90DF90CF900C9479085E
:102A600080914A0381110E949914C0904503D0902F
:102A70004603E0904703F09048030E949D0F88238F
:102A800069F0C701B6010E94D40660317105810565
:102A9000910508F481CF10926D017ECF0E94BA118A
:102AA0006C197D098E099F09F0CFEBE4F3E089E012
:102AB00080838091710190917201A0917301818353
:102AC0009283A3838FE784838FEF85830C9499147B
:102AD00080917001EEE5F2E0882359F08091AE0319
:102AE00087FF07C08EE1DF011D928A95E9F70C94FC
:102AF000B80C86E0F8CF1F93CF93DF93CDB7DEB746
:102B0000AA970FB6F894DEBF0FBECDBF8BED93E052
:102B10002091F100DC012D93CD01B3E0833E9B07B2
:102B2000B9F78091DC03833009F472C0B8F48130C6
:102B300009F449C0823009F4B5C08091E80083FFF0
:102B400098C28091DB039091DC039A3008F091C227
:102B5000E92FF0E0E652FE4C0C941A308A3009F46A
:102B600090C08B3009F471C0893039F78091DB0354
:102B7000813219F78091DF039091E003009711F003
:102B80000297D9F68091E800877F8093E8008091D2
:102B9000E80082FF38C09091F3008091F200029724
:102BA00031F48091F100813011F0863021F4809170
:102BB000F1008093B6038091E8008B778093E80062
:102BC0000E94BF05BACF8091DB03813A09F0B5CFEF
:102BD0008091E800877F8093E8008091DF039091E7
:102BE000E003892B61F460E287EB93E070E00E94E0
:102BF00071068091E8008B778093E8009ECF60E0BB
:102C000090E080E0F3CF8091D9038111C0CF95CFC0
:102C10008091DB03813A09F090CF8091DF0390919E
:102C2000E003892B09F089CF8091E800877F8093AA
:102C3000E8008091E80080FFFCCF809170018093D4
:102C4000F1008091E8008E77B9CF8091DB0381326B
:102C500009F073CF8091DF039091E003892B09F095
:102C60006CCF8091E800877F8093E8000E94BF05C9
:102C70008091DD03809370011092B4030E94681567
:102C80005CCF8091DB03813209F057CF8091E8005F
:102C9000877F8093E8000E94BF058091DE038093C8
:102CA000B5034BCF8091DB03813A09F046CF809189
:102CB000E800877F8093E8008091E80080FFFCCFE8
:102CC0008091B503BCCF803899F0823809F0D1C12A
:102CD0008091DF038F70873008F0CBC18093E900CB
:102CE0008091EB0085FB882780F91092E90006C0EF
:102CF0008091D7039091D803911182609091E80060
:102D0000977F9093E8008093F1001092F1008091FA
:102D1000E8008E77AAC1882309F498C1823009F0AF
:102D2000A8C18091DD0381119BC18091DF038F7069
:102D30002FEF280F263008F09CC18093E9002091E6
:102D4000EB0020FF8DC1933031F48091EB00806265
:102D50008093EB0085C19091EB0090619093EB0024
:102D600021E030E001C0220F8A95EAF72093EA00C3
:102D70001092EA008091EB008860EACF811179C15E
:102D80001091DD031F778091E3008078812B809381
:102D9000E3008091E800877F8093E8000E94BF05F0
:102DA0008091E80080FFFCCF8091E30080688093F1
:102DB000E30082E0111183E08093D9035AC1805867
:102DC000823008F056C12091DD033091DE032C3DA6
:102DD000E3E03E07A1F583E08A838AE289834FB767
:102DE000F894DE01139620E03EE051E2E32FF0E09C
:102DF00050935700E49120FF03C0E295EF703F5FCE
:102E0000EF708E2F90E0EA30C0F0C7968D939D93BF
:102E10002F5F243159F74FBF8091E800877F80935F
:102E2000E8006AE270E0CE0101960E94710680918E
:102E3000E8008B778093E8001CC1C096E7CF8091B3
:102E4000DF039091E003432F55274330510509F4E8
:102E50004AC078F54130510509F485C08BE590E012
:102E6000EBE1F9E04230510509F003C12091E8009F
:102E7000277F2093E8002091E1033091E20382173D
:102E8000930708F49C0140E02115310509F070C05A
:102E900041116EC08091E80082FDC9CF8091D903B5
:102EA000882329F2853019F28091E80083FFF2CF60
:102EB000BECF4132510509F447C04232510509F0F5
:102EC000D8C08330910508F0D4C0FC01EE0FFF1F7D
:102ED000E35BFD4F0190F081E02D865B9D4FDC01AF
:102EE0008C9190E01DC0332721303105E9F0211588
:102EF000310579F022303105F9F02330310509F040
:102F0000B8C0E8E8F9E0E4918E2F90E0E8E8F9E055
:102F100007C0E6ECF9E0E4918E2F90E0E6ECF9E0F2
:102F2000009709F4A6C0A2CFE4EBF9E0E4918E2F5C
:102F300090E0E4EBF9E0F4CFE6EAF9E0E4918E2FDB
:102F400090E0E6EAF9E0ECCF8330910508F091C01B
:102F5000880F991FFC01ED5AFD4F0190F081E02D83
:102F600089E090E083CF82E190E0E6E7F9E07ECF70
:102F70008091D903882309F45ACF853009F457CFBB
:102F80008091E80083FD53CF8091E80082FD82CFDD
:102F90008091E80080FF78CF9091F3008091F2005B
:102FA0002115310519F08830910550F041E008975E
:102FB00009F040E08091E8008E778093E80064CFCC
:102FC00044914093F1003196215031090196E8CFA8
:102FD000803809F04EC08091E800877F8093E80038
:102FE0008091DA038093F10092CE811142C010915A
:102FF000DD031230F0F58091E800877F8093E800D0
:103000001093DA030E94BF05112311F084E005C07C
:103010008091E30087FDFACF81E08093D90342E0FD
:1030200061EC81E00E94DE0542E261EC84E00E94F6
:10303000DE0542E261EC82E00E94DE0542E260ECE5
:1030400083E00E94DE058091D90313C08091DD03E7
:10305000813079F481E0933009F080E08093D803E7
:103060001092E9008091E800877F8093E8000E9439
:10307000BF058091E80083FF0AC08091E800877F48
:103080008093E8008091EB0080628093EB00AA9629
:103090000FB6F894DEBF0FBECDBFDF91CF911F9169
:1030A0000895BF92CF92DF92EF92FF920F931F93FA
:1030B000CF93DF93B82EEB01F42E690168817981FB
:1030C0008A819B810E94D406643671058105910531
:1030D00010F4FF2019F1EB2C0B2C000CFF088B2DAA
:1030E0009AE08902F0011124E55FFE4F838194810B
:1030F00080519D4F428150E00417150708F4A80144
:10310000B6010E946831C7010E94522F892B89F4B1
:103110000E94F006688379838A839B8381E0DF9134
:10312000CF911F910F91FF90EF90DF90CF90BF90C4
:10313000089580E0F4CF0F931F9341E09091FD023A
:103140008091E303981301C040E001E010E023EE1A
:1031500033E06FE073E084E00E945118882389F027
:1031600041E09091FE0280914403981301C040E039
:1031700001E010E024E433E06BE073E085E00E94BE
:1031800051181F910F910895CF93DF9300D000D075
:10319000CDB7DEB7609107037091080380910903F2
:1031A00090910A030E94D406643671058105910549
:1031B00068F10E94BA116E5F7F4F8F4F9F4F6983F6
:1031C0007A838B839C8380912C0190912D01805177
:1031D0009D4F40912B0150E04530510510F044E0E7
:1031E00050E0BE016F5F7F4F0E94683183E090E046
:1031F0000E94522F892B61F40E94F006609307030E
:10320000709308038093090390930A0381E001C03F
:1032100080E00F900F900F900F90DF91CF91089565
:103220000F931F93CF93DF9300D000D00F92CDB7B1
:10323000DEB78B0190E080E00E94522F892B09F0CD
:1032400078C04091100150E04115510511F041E066
:1032500050E0609111017091120160517D4FCE01DB
:1032600005960E9468316091E8027091E9028091B0
:10327000EA029091EB020E94D40664367105810542
:10328000910540F481EF92E00E942E059D818917FF
:1032900009F45FC081E090E00E94522F892BC1F0B9
:1032A00080E04091E4025091E5026091E602709165
:1032B000E702F80140835183628373830F900F907C
:1032C0000F900F900F90DF91CF911F910F91089564
:1032D00040911A0150E04530510510F044E050E0B3
:1032E00060911B0170911C0160517D4FCE010196D0
:1032F0000E94683181EF92E00E942E059D81891322
:10330000CFCF0E94F0066093E8027093E9028093A9
:10331000EA029093EB0289819A81AB81BC81809310
:10332000E4029093E502A093E602B093E70281E005
:10333000B8CF80E04091F1025091F2026091F30227
:103340007091F40249835A836B837C838111E3CFAC
:10335000A8CF81E0EFCFCF92DF92FF920F931F9320
:10336000CF93DF93F82E6B01EA01A801B901CE01DA
:103370000E945B3141E0892B09F440E09E01B601D7
:103380008F2D0E945118DF91CF911F910F91FF90C7
:10339000DF90CF9008950F931F93CF93DF9300D0CA
:1033A00000D000D00F92CDB7DEB786E0EBE4F3E0BB
:1033B000DE01119601900D928A95E1F78091490303
:1033C0008F8307E010E020E033E0AE014F5F5F4FF6
:1033D00067E173E087E00E94AB1927960FB6F89477
:1033E000DEBF0FBECDBFDF91CF911F910F9108952A
:1033F0000F931F93CF93DF930F92CDB7DEB70E9449
:10340000C00F898301E010E02FEF32E0AE014F5F83
:103410005F4F63E173E086E00E94AB190F90DF918C
:10342000CF911F910F9108950F931F9304E010E027
:1034300025EF32E0AC016CEE72E082E00E94AB1945
:103440001F910F9108952F923F924F925F926F922A
:103450007F928F929F92AF92BF92CF92DF92EF9224
:10346000FF920F931F93CF93DF93CDB7DEB72C97C7
:103470000FB6F894DEBF0FBECDBF8E010F5F1F4F9A
:1034800088E0D8011D928A95E9F7EEEBCE2EE1E0B7
:10349000DE2EF12CE12CAA24A394B12CAEEC8A2EC2
:1034A000A1E09A2EF60181916F018F3F09F443C08C
:1034B000F894E82FE295EF70F0E021A18F70A5015C
:1034C00002C0440F551F8A95E2F7CA01922F982B2C
:1034D00091A392A18095892382A30E94900900C0A4
:1034E000E6ECF1E0712C31E021912F3F09F4B1C0FD
:1034F000A22FA295AF70B0E090968C9190E02F70C3
:1035000002C0959587952A95E2F780FDA2C0832F8A
:10351000782A330F8E169F0639F7F601319780818E
:103520008F3F11F00E94920950EA5A95F1F7F80185
:10353000EE0DFF1D70828FEFE81AF80AA4E0EA167C
:10354000F10409F0AFCF48E050E0B80182E293E027
:103550000E945B317C01892B41F088E0F801A2E2F6
:10356000B3E001900D928A95E1F700912B0310E0F2
:10357000085C1C4FD090DB02DD2009F4D3C10E940F
:10358000FC062091D9023091DA02FC01E21BF30B18
:103590009F019093DA028093D902EF3FF10511F079
:1035A00008F059C0EF2B09F450C0622E409120035F
:1035B000509121031092DB021092D802F80162E2CE
:1035C000262E63E0362E4A0180E2880E911C712C73
:1035D000512CAA24A394B12C90E080E0BA01680F8A
:1035E000791FDB01CC904C2CE89440F84420E1F0AA
:1035F0004C2C4694BC2DB170CB2E4216130609F00C
:103600006CF5DB01CC92C11030C0B501082E01C0B1
:10361000660F0A94EAF7762F7095C0807C21D1015D
:10362000CC906C21672B6083019688309105B1F6B0
:10363000485F5F4F3196BFEF2B1A3B0A8416950601
:1036400059F65092DB027092D802E114F104B9F4F9
:103650006DC180E05DCF2FEF30E0A7CF4618440C5E
:10366000C428DB01CC925D2CDFCF7D2CDDCFD110C7
:1036700006C00E94FC069093DA028093D9028091E2
:10368000200390912103C090DB0222E2222E23E04E
:10369000322EF8014C0120E2820E911C01E010E074
:1036A000D1017D901D012081722630E020E05D0176
:1036B000B1E0AB1AB108AC01420F531FB801022EA2
:1036C00001C0660F0A94EAF7DA01DC906D2CE894E9
:1036D00060F8572C5622B9F061101CC0D501CC906F
:1036E000C622DD24D394C11001C0D12CBD2DB660FB
:1036F000DB2EDA01DC92D0FE03C0408164276083B8
:10370000CC24C39407C0662029F0D0FC03C06D2DE3
:1037100061706C932F5F3F4F2830310561F608963A
:1037200031968816990609F0BBCFC092DB0281E082
:1037300090E0EF2809F4FEC02C960FB6F894DEBF97
:103740000FBECDBFDF91CF911F910F91FF90EF90F2
:10375000DF90CF90BF90AF909F908F907F906F90B1
:103760005F904F903F902F90089519861A861B8680
:103770001C860E2F10E0085C1C4F80911B038A30C2
:1037800008F08EC040E159E1BE01675F7F4FC8017C
:103790000E94590F882309F4B4C044E15AE1BE01E4
:1037A000675F7F4FC8010E94590F882309F4A9C0A1
:1037B00044EC58E1BE01675F7F4FC8010E94590F7A
:1037C000882309F49EC04BE958E1BE01675F7F4F33
:1037D000C8010E94590F882309F493C048EF59E1AA
:1037E000BE01675F7F4FC8010E94590F882309F40B
:1037F00088C04BEC59E1BE01675F7F4FC8010E9452
:10380000590F882309F47DC010921B0380912A036D
:1038100090E044E050E0BE01675F7F4F885C9C4FC2
:103820000E945B3121E02093E202892B09F05BC00A
:10383000F12C00919E0310919F030115110571F168
:1038400060919303709194038091950390919603F6
:103850000E94D40680908F0390909003A0909103D3
:10386000B0909203681579058A059B05B8F0C801E8
:103870000E94850E10929F0310929E031092930354
:1038800010929403109295031092960310928F0356
:103890001092900310929103109292038F2D4CCFAF
:1038A0002091DC023091DD024FB7F8948091AA0399
:1038B0009091AB03A091AC03B091AD034FBF821BBD
:1038C000930B843F914008F05DCF8091E202882302
:1038D00009F4AECFFE01399684E0DF011D928A958E
:1038E000E9F71092E202E0912A03F0E0E85CFC4F75
:1038F00089859A85AB85BC8580839183A283B383B8
:1039000098CF80911B038F3F31F08F5F80931B0313
:103910008A3008F47BCF0E94FC069093DD028093EE
:10392000DC02D3CFE114F10409F0A3CE8091D802D8
:1039300081119DCE0E949D0FF82EE0912B038111E5
:1039400014CFF0E0E85CFC4F00912A0310E0085C23
:103950001C4FF89484E0A1EFB2E001900D928A959B
:10396000E1F781EF92E00E942E058093F0020E9421
:103970009009F89484E0E5EFF2E0D80101900D920F
:103980008A95E1F70E949009F894C090F902D090CE
:10399000FA02E090FB02F090FC028091DE0290912E
:1039A000DF02A091E002B091E102C816D906EA0652
:1039B000FB06D1F0C092DE02D092DF02E092E0027C
:1039C000F092E1020E949D0F81110EC00E94F0064C
:1039D000C61AD70AE80AF90AC0921C03D0921D033E
:1039E000E0921E03F0921F030E949009F8948091C8
:1039F000FD028093E3038091FE02809344030E94C2
:103A00009009F8948091FF028093A2030E9490098C
:103A1000F89486E0E0E0F3E0ABE4B3E001900D92CF
:103A20008A95E1F710910603112349F0809149032B
:103A3000811105C00E940C1080E00E94790810934B
:103A400049030E94900980E077CE90E080E00E94D8
:103A500090318A3E9E4F11F40C94801480E00895BA
:103A60006AEE7EEF90E080E00E94C43160E082E088
:103A700090E00E94A63160E083E090E00E94A631D1
:103A80001092440360E084E090E00E94A63160E080
:103A900082E290E00E94A63160E085E090E00E9422
:103AA000A63160E086E090E00E94A6316FEF87E0EB
:103AB00090E00E94A63140E050E0BA0188E090E03A
:103AC0000E94B83160E08DE090E00E94A63140E0B5
:103AD00050E0BA0188E190E00E94B83160E087E1EF
:103AE00090E00E94A63140E050E0BA018CE190E005
:103AF0000E94B83170E060E080E290E00E94C43142
:103B000040E050E0BA0188E190E00E94B83180E0E6
:103B10000E9466130E947E1340E050E0BA018FE0DD
:103B200090E00E94B83140E050E0BA0183E190E0BB
:103B30000C94B8312F923F924F925F926F927F9286
:103B40008F929F92AF92BF92CF92DF92EF92FF92AD
:103B50000F931F93CF93DF9300D000D000D00F922C
:103B6000CDB7DEB77C01DC0113964D915C911497C3
:103B700011966C9111978C910E94460C811129C06D
:103B800061E0C7010E944F148C01F701528055205B
:103B900009F44AC682519F45409708F005C68FEF49
:103BA00093E00E9488315EEED52ED00E07E213E03E
:103BB0008823A1F18091D202877059F0F7018281A8
:103BC000882339F08091AF0382FD03C082E00E9418
:103BD000E10C27960FB6F894DEBF0FBECDBFDF9184
:103BE000CF911F910F91FF90EF90DF90CF90BF90FA
:103BF000AF909F908F907F906F905F904F903F908D
:103C00002F9008950115F4E01F07A1F2C8010E944A
:103C10008831811101C0DA940F5F1F4FD110F2CFAC
:103C200019821A821B821C82CC24CA9448012FEF6D
:103C3000821A920AC8010E94883189831A828823D5
:103C400009F4B8CF813009F048C0580132E0A30E22
:103C5000B11CC4010E948831982E8A83882309F4FC
:103C6000A9CFC5010E948831D82E8FEF890D8330EE
:103C700068F4580143E0A40EB11CDB82DD2021F082
:103C8000CE0101960E94F2118501D0CF54E0951229
:103C9000FBCF580184E0A80EB11CC80103960E9416
:103CA0008831DD2009F486CF882309F483CF815041
:103CB000990BC89E9001C99E300D1124AD2DA150C5
:103CC000BB0BCD01820F931F0197F0F2EFE9FFE0EC
:103CD0003197F1F700C00000F7CFCE0101960E94A6
:103CE000F2115401D1CF81E00E94FD0C0E94CA0C58
:103CF00061CF81E00E94D50CF9CF82E0F5CF013889
:103D0000BFE51B0709F4A6C00238EFE51E0709F05E
:103D10006FC564E374E1552009F44CCF88E190E06D
:103D200096C00738FFE51F0709F4ACC090F40438CB
:103D30003FE5130709F49EC005384FE5140709F065
:103D400057C564E374E1552009F434CF84E090E072
:103D50007EC008385FE5150709F49CC009388FE577
:103D6000180709F045C563E276E187E190E0552048
:103D700009F420CF6CC00F389FE5190709F4B0C0D3
:103D8000B8F40C38BFE51B0709F49AC008F492C0D8
:103D90000D38FFE51F0709F49BC00E382FE5120709
:103DA00009F026C5552009F405CF63E276E16FC01E
:103DB00002393FE5130709F4A3C080F400395FE539
:103DC000150709F495C001398FE5180709F010C5EA
:103DD000552009F4EFCE64E376E1A0CF03399FE5E7
:103DE000190709F499C00439AFE51A0709F000C5AD
:103DF000552009F4DFCE1091B40382E20E94370D02
:103E0000812F8272A9F080E00E943E0D81E10E9424
:103E1000D70D81E10E94480D80E00E94370D10927D
:103E2000B403812F0E943E0D84E90E94480DC2CE4A
:103E300080E00E943E0D87E00E94D70D87E0EACF28
:103E400064E374E188E090E0552009F4B3CE0E9469
:103E50009A12B0CE64E374E185E190E0552009F454
:103E6000A9CEF5CF64E374E18CE090E0552009F42D
:103E7000A1CEEDCF64E374E1552009F49BCE82E13D
:103E800090E0E5CF64E374E1552009F493CE8FE030
:103E900090E0DDCF64E374E18CE190E0552009F41B
:103EA00089CED5CF63E276E18DE190E0552009F42B
:103EB00081CECDCF63E276E1552009F47BCEDFCF12
:103EC00063E276E186E190E0552009F473CEBFCF3E
:103ED00063E276E187E090E0552009F46BCEB7CF3E
:103EE00063E276E186E090E0552009F463CEAFCF3F
:103EF00063E276E181E190E0552009F45BCEA7CF43
:103F000064E376E1552009F455CEB9CF552009F484
:103F100051CE64E376E11ACF552009F44BCE63E22B
:103F200074E1ADCF81E080930A0144CE80910A0113
:103F3000882309F4A3C3480120EE821A9108409017
:103F4000D7028091CF02482A8091B403482A38E0F2
:103F50008316910408F086C098012770332781E00A
:103F600090E001C0880F2A95EAF7552009F477C040
:103F7000482AD7018D919C910E945B0C21E030E092
:103F8000190102C0220C331C8A95E2F7E091A003CC
:103F9000F091A103FF83EE8360907D0270907E021A
:103FA0001D822D81E22FF0E0EE0FFF1FEA5FFE4F32
:103FB000C080D180C114D10409F4E1C3411005C00F
:103FC000D60112968C91811189C0F601838190E00F
:103FD00082219321892B09F481C08085982F9770C5
:103FE00009F487E0F8E08F16910408F055C05520D9
:103FF00009F44EC086958170882309F46FC0D601FC
:10400000AD90BC900A151B0519F4552009F466C043
:10401000EE81FF81CE16DF0609F460C0D6011D9641
:10402000ED91FC91309721F08081882309F456C0EE
:10403000642DC6010E94AF07882309F44FC00A15FA
:104040001B0509F0FBC30115110509F4FCC3511050
:10405000FCC3A614B70409F041C0512CF6C38095E7
:10406000482287CF552009F473C310937E02009332
:104070007D020E94F00660939703709398038093EB
:10408000990390939A0310929F0310929E0371CF0D
:1040900082FB882780F9B0CF552001F18170ACCF29
:1040A0000E94480DF1C30497813A910558F46A2D96
:1040B0008CE592E00E940807552009F4DFC20E94B7
:1040C0008F0B78CD0E948F0B8FE39CE90197F1F75E
:1040D00000C000008A2D0E94D70DEECF9D819F5F0A
:1040E0009D835FCFFC01208131810217130709F006
:1040F000BEC25110BEC210929D0380E052C3073C65
:10410000BCE51B0709F45BC008F454C0083CFCE59F
:104110001F0709F459C043E058E060E178E0093C2A
:104120001C4509F0CBC20E94CF0744CD0E3C3CE5B4
:10413000130709F43FCD78F40C3C5CE5150709F44E
:104140004DC044ED57E062EE77E00D3C1C4558F35E
:1041500061E081E00AC0063DACE51A0748F461E081
:1041600082E0003D1C4508F025CD0E944B0822CD81
:104170000D351D4509F41ECDA1C280914B0391E080
:10418000892780934B0310926D0180914A038160CF
:1041900080934A030FCD44E658E06EE678E0C3CF43
:1041A0004EE658E064E678E0BECF47E358E061E4CD
:1041B00078E0B9CF41E458E067E378E0B4CF4DE16F
:1041C00058E06AE278E0AFCF4AE258E06DE178E08B
:1041D000AACF40E158E063E078E0A5CF42EE57E097
:1041E00064ED77E0A0CF0A35FDE51F0769F158F4CB
:1041F00001153CE51307C9F00E3D1C4509F05EC2F0
:104200000E94301DD7CC0B355DE51507F9F00C3554
:104210001D4509F053C28091AF0382FB882780F9C6
:1042200091E089270E948D1349C21092B4030E9425
:1042300068159FEFA4E3BCE09150A040B040E1F7C7
:1042400000C000000E940E0F81E0ECCF80E0EACFBA
:10425000C8010E945B0CD82E42C2212F2F70D22E93
:10426000107F19F0D29490EFD922CC20B9F0DD2044
:1042700069F080E2800F883010F0811009C08091D1
:10428000B403D82AD092B4030E948F0B802F4DC064
:104290008091D402D82AD092D402F6CF802F0E94E7
:1042A000480DDD2009F443C0005E083010F0811095
:1042B00004C08D2D0E94880B06C0D0948091D4023A
:1042C000D822D092D4020E948F0B31C0312F3F7080
:1042D000D32E107F103219F0D29480EFD82288208C
:1042E000A1F041E0841609F482C0CC2009F48BC00F
:1042F000BB2009F460C0D70115968C91159780FFFB
:10430000C5CF8F7015968C9356C08091AF0382FFF6
:1043100037C0CC2079F1DD2039F08091B403D82A60
:10432000D092B4030E948F0B80E00E94D70DA92D7C
:10433000A850BB0B149710F40E94C00FAA20A9F03C
:104340008091D20280FD11C0F7011282859585957A
:1043500085950E94FD0CC7010E949A1D8091D20292
:104360008595859585950E94D50C60E0C7010E94D2
:104370004F142FCC80E00E94480DDD20C1F299CF70
:10438000CC20E9F0B11004C08091D7028D2914C06F
:1043900051E0B51206C08091D7028D290E94740B9E
:1043A000C6CF85E0B812F0CF0E94690B8091CF0292
:1043B000D812D092CF028D2D0E943E0DB8CFB110F1
:1043C00006C00E94690B8D2D0E94370DB0CF91E081
:1043D000B91208C08091B4038D2109F4A8CF0E94BE
:1043E000F50BEFCFA5E0BA1609F4A1CFEACFCC20A8
:1043F00029F0B5E0BB1508F49ACFDDCFE4E0EB156A
:1044000008F495CFE0CFBB20F1F2B9E38B1209C0DD
:10441000EFEFF7EE23E0E150F0402040E1F700C07D
:104420000000802F0E94480D82CF812F86958695AF
:10443000837061F0813009F07ACFC8019370C110A8
:1044400002C090E080E00E943D0771CFC8019370E8
:10445000C11002C090E080E00E94530768CF812F16
:10446000837089F5C11063CF402F42954695477000
:10447000440F440F802F8F70042E01C0880F0A94C0
:10448000EAF7202F207104FF07C02FE030E001C0C1
:10449000220F4A95EAF7209516951695137012305B
:1044A00069F050F430914403113029F0822B8323BA
:1044B0000E941E0D3CCF832B822BFACF282B80919C
:1044C00044038227F5CF8695CC2011F0812F81708F
:1044D000882309F42CCF402F429546954770440F0E
:1044E000440F802F8F70042E01C0880F0A94EAF7C2
:1044F000202F207104FF07C02FE030E001C0220F01
:104500004A95EAF72095169516951370123069F0C2
:1045100050F43091E303113029F0822B83230E9461
:10452000C60C05CF832B822BFACF282B8091E30377
:104530008227F5CF1F70CC2029F0812F0E94FD0C1F
:10454000802F3ACF802F0E94370D812F0E94D50CEB
:10455000EECE802F32EF8316A9F1381570F040EFC0
:104560008416D1F051EF851691F0CC2009F46FC07C
:10457000B1108CCE812F8F7129C093EF891649F12C
:10458000A4EF8A12F2CF8091AF0382FF2DC0812F5A
:104590008F71CC20D9F21AC0CC2079F0B4E0BB15D1
:1045A00008F4C5CE1F7181E090E001C0880F1A9514
:1045B000EAF79091E3038927B2CFE5E0EB1508F421
:1045C000B6CEF0CF812F8F71C110C0CF0E94FD0CED
:1045D000AECE80E0CC2009F4A2CF1F7181E001C0F3
:1045E000880F1A95EAF79BCF8091CF02CC20D9F0A3
:1045F0000E94880B8091D2028770843041F40E941F
:10460000EE0B812F8F710E94D50CA12C90CEF4E07F
:10461000FB15D8F31F71812F0E94FD0C63E0812FE1
:104620000E94080DF2CF9091B403982B9093B4039D
:1046300024E02B1540F40E94EE0B0E94F50B64E081
:10464000812F8F71EDCF81E00E94E10CDECFBB2086
:1046500059F0893309F0E5CE3FEF47EE53E0315092
:1046600040405040E1F7DBCE812F8F716FCF552056
:1046700029F0DC0118968C9185FF3FCDF7018281EE
:104680008111B1CD8091B40382720A3CFCE51F0711
:1046900009F49FCD08F04ACD053C3CE5130709F429
:1046A00084CD08F02CCD033C5CE5150709F473CDEF
:1046B00008F076CD023C1C4509F45FCDD701129677
:1046C0008C9112970D911C91882309F4C1CDC801DA
:1046D0000E94ED13D82E682FC8010E94880CB801E3
:1046E0008D2D0E94DA130E94EC098C01882EF701AF
:1046F000C280B580B2943FE0B3228091D20287702D
:10470000C1F0AC2CCC20B1F0812F807F803421F01F
:1047100080E2800F883068F08091AF0382FD09C08D
:1047200082E00E94E10C8091D2028770AA24A394B7
:104730008111A12C912E92942FE09222FBE0F91589
:1047400008F4F5CDE92DF0E0EC51FE4C0C941A3054
:1047500080917D0290917E020817190781F41092D2
:104760007E0210927D02109297031092980310928D
:10477000990310929A0310929F0310929E038091C6
:10478000A0039091A103009709F478CFA8E08A16BE
:10479000910408F0A7CC642D0E94AF0781116ECF61
:1047A00081E00E94700D6ACF0031BFE51B0709F45C
:1047B0009ACA0131EFE51E0709F49FCA0A382FE5AE
:1047C000120709F46FCB08F0D6CA03384FE5140777
:1047D00009F448CB08F0A5CA00388FE5180709F49A
:1047E0002FCB08F08CCA0430A4E11A0709F48ECB51
:1047F000552009F49BCB0F35BDE51B0709F492CB7F
:104800000036EDE51E0751F00E35FDE51F0709F0F6
:104810008DCB80910A01882309F484CB10920A0180
:1048200080E00E94700DC6C98031FFE59F0709F442
:1048300060CA81319F4511F682E05CCAA114B104BF
:1048400009F007CC512CB12CA12C80E00E94700DF6
:10485000D092A103C092A00381E080939D03D60172
:1048600015968C9180939B0351100EC0AB2861F07C
:10487000F601808191819C0124503109213A310552
:1048800008F00ECC0E94FB0BD6011696AD90BC90A2
:10489000C5019A9581159F4110F4E0EEBE22772460
:1048A0007394C5010197843A9D4508F0712CD60197
:1048B0001996ED91FC911A97309731F01B966D91F6
:1048C0007C9181E009957822772079F0F601868144
:1048D00097810E94540E80939C03C501F8E08F16C7
:1048E000910408F0E0CB0E9469070E948F0BE4CB93
:1048F000DF92EF92FF920F931F93CF93DF938091FC
:104900009C02807F61F480919902882341F0C091DC
:10491000CE0286E0D82E80919D028C1308C0DF91D4
:10492000CF911F910F91FF90EF90DF90089510911C
:10493000970200919802E0909A02F0909B02A701E2
:10494000602F812F0E94460CD0E0811143C0DC9E75
:10495000F001DD9EF00D1124E256FD4F81818013A0
:1049600039C08081811336C08281811133C00381B7
:1049700014810E191F0960E087E992E00E944F142C
:104980008832954421F188EC90E00817190710F55A
:1049900080919C028F70806180939C0286E08C9F46
:1049A000F0018D9FF00D1124ED55FD4F80818F702A
:1049B0008061808387E992E00E949A1DDF91CF9108
:1049C0001F910F91FF90EF90DF900C94510C88EAAB
:1049D00090E0DBCF2196C7709ECF6F927F928F922F
:1049E0009F92AF92BF92CF92DF92EF92FF920F937E
:1049F0001F93CF93DF93CDB7DEB761970FB6F894CF
:104A0000DEBF0FBECDBF8C0185E0F801DE011D9633
:104A100001900D928A95E1F7D8016C9011967C90E7
:104A200011971296EC9012971396AD90BC9060E09F
:104A300087E992E00E944F14C0909A02D0909B02A6
:104A4000A60160919802809197020E94460C811104
:104A50007EC1F090990245018C189D0860E087E9BD
:104A600092E0FF2009F427C10E944F148832954438
:104A700009F448C088EC90E0D0909C028816990612
:104A800008F0CEC040919A0250919B02C0909702CC
:104A9000909098028D2D807F692D09F079C08C2D22
:104AA0000E94460CFE2C811130C0F80181818911D1
:104AB0002CC080818C1129C0E11027C08D2D8F70F2
:104AC000806180939C0287E992E00E949A1D809108
:104AD0009C02D80115968C938F2D61960FB6F89491
:104AE000DEBF0FBECDBFDF91CF911F910F91FF9021
:104AF000EF90DF90CF90BF90AF909F908F907F907E
:104B00006F90089588EA90E0B7CFA501672D862DB4
:104B10000E94460C811124C081E08E25B82FB1700F
:104B2000CB2E80FF2BC04E2D672D862D0E94260C8C
:104B3000D82E811123C06D867E868D859E850E942C
:104B40001C14292F22952F70223060F0243088F415
:104B50009F7061F0F8019581907F41F4FD2CBCCFEE
:104B600080E0DCCF9F7011F08823C1F3805E883035
:104B7000A8F3C8010E949A1DDC2CF0CFEE2009F4A6
:104B8000ABCF80919C02816080939C02F12CA4CFDA
:104B90008C2D0E94460C811119C0D80111968C9160
:104BA0001197891113C08C918C1110C0E1100EC0A7
:104BB0001596DC92C8010E949A1D86E0F801A7E9CB
:104BC000B2E001900D928A95E1F786CFC8010E946C
:104BD0002814882309F1EE20F9F080919C0280329C
:104BE00070F0209197023091980238872F831986B0
:104BF000BB86AA868C87CE0107960E949A1D86E006
:104C0000F801A7E9B2E001900D928A95E1F70E94C0
:104C10007824FF24F39460CFC8010E949A1DF9CF35
:104C20008D2D807F61F487E992E00E949A1D86E0D5
:104C3000E7E9F2E0DF011D928A95E9F7A7CFC0907E
:104C400097029090980240919A0250919B02692D90
:104C50008C2D0E94460C811115C0F80181818911AB
:104C600011C080818C110EC0E1100CC0D582C8012A
:104C70000E949A1DE7E9F2E086E0DF011D928A9525
:104C8000E9F72ACFC8010E942814882329F2EE20D0
:104C900019F280919C02803208F4B1CF20919702E2
:104CA000309198023A8329831B82BD82AC828E8325
:104CB000CE010196A2CF0E944F148832954491F103
:104CC00088EC90E08816990608F03DC0FE2CEE2096
:104CD00009F4A2CFE0909702D090980240919A02F6
:104CE00050919B026D2D8E2D0E94460C81111DC08E
:104CF000F80181818D1119C080818E1116C08091BB
:104D00009C0280FD5ACF982F907F09F456CF85835F
:104D1000903F09F44FCF982F907F905F8F70892B31
:104D2000858348CF88EA90E0CDCFC8010E9428143F
:104D3000811165CF80919C02816080939C02C801A3
:104D40000E949A1DC9CE86E0E7E9F2E096CFEE20F8
:104D500009F462CFC8010E942814F82E882309F4B0
:104D60005BCF86E0F801A7E9B2E001900D928A9549
:104D7000E1F780919702909198020E941C140E9482
:104D80007824AACE1F93CF93DF93CDB7DEB7679772
:104D90000FB6F894DEBF0FBECDBF4B8B5C8B6D8B17
:104DA0007E8B8F8B61111092D4021A8A198A85E04A
:104DB000FE017396DE011D9601900D928A95E1F732
:104DC0008091AF0382FD1CC00E94FC062091D0029E
:104DD0003091D102821B930B8838934120F080914F
:104DE000D20282FF80C00E94FC062091D502309141
:104DF000D602821B930B8838934110F00E94690BF6
:104E000086E0FE013D96DE01179601900D928A958F
:104E1000E1F7CE0107960E94ED24811111C086E0D2
:104E2000FE013796DE01119601900D928A95E1F709
:104E30004A855B8568858F810E94460C882389F0AE
:104E400016E08091CE0290919D02891339C0679639
:104E50000FB6F894DEBF0FBECDBFDF91CF911F918B
:104E6000089520919D0230E0C9010196877099272D
:104E70004091CE024817190699F096E0929FD00112
:104E8000939FB00D1124A256BD4FFE0131960190A3
:104E90000D929A95E1F780939D020E94510CD0CF1C
:104EA0001092B4030E94681510929D021092CE02D7
:104EB00086E0E7E9F2E0DF011D928A95E9F7C0CFCD
:104EC000819FC001112482569D4F0E94ED248823AA
:104ED00009F4BDCF8091CE0290E0019687709927AA
:104EE0008093CE02AECF82E00E94E10C7CCF1F9275
:104EF0000F920FB60F9211242F933F934F935F930E
:104F00006F937F938F939F93AF93BF93CF93DF93D1
:104F1000EF93FF93D091E900DF708091EC00C82FF0
:104F2000C17080FDC0E81092E9008091F000877F99
:104F30008093F00078940E947B151092E900809194
:104F4000F00088608093F000CD2BCF70C093E90013
:104F5000FF91EF91DF91CF91BF91AF919F918F9191
:104F60007F916F915F914F913F912F910F900FBE65
:104F70000F901F9018951F920F920FB60F92112449
:104F80002F933F934F935F936F937F938F939F9351
:104F9000AF93BF93EF93FF938091E10082FF09C02D
:104FA0008091E20082FF05C08091E1008B7F8093B9
:104FB000E1008091DA0080FF24C08091D80080FF5A
:104FC00020C08091DA008E7F8093DA008091D90032
:104FD00080FF9DC080E189BD82E189BD09B400FEEA
:104FE000FDCF81E08093D9038091B303811109C083
:104FF0000E9445050E9410068091E2008460809323
:10500000E2008091E10080FF17C08091E20080FF04
:1050100013C08091E2008E7F8093E2008091E200D5
:1050200080618093E2008091D80080628093D800F4
:1050300019BC85E08093D9038091E10084FF2BC0E7
:105040008091E20084FF27C080E189BD82E189BDB3
:1050500089B5982F917080FFFBCF8091D8008F7D0C
:105060008093D8008091E1008F7E8093E100809151
:10507000E2008F7E8093E2008091E2008160809365
:10508000E2008091DA03882309F447C084E080932A
:10509000D9038091D9038091E10083FF27C08091DB
:1050A000E20083FF23C08091E100877F8093E100CD
:1050B00082E08093D9031092DA038091E1008E7F21
:1050C0008093E1008091E2008E7F8093E2008091E6
:1050D000E20080618093E20042E060E080E00E94B4
:1050E000DE058091F00088608093F000FF91EF91E1
:1050F000BF91AF919F918F917F916F915F914F91F0
:105100003F912F910F900FBE0F901F90189519BCD3
:105110001092D9031092B30374CF8091E30087FDFE
:1051200093E09093D903B5CF78941F921FB61F9246
:1051300011248F939F93AF93BF938091AA03909173
:10514000AB03A091AC03B091AD030196A11DB11DBD
:105150008093AA039093AB03A093AC03B093AD03E9
:10516000BF91AF919F918F911F901FBE1F90189577
:105170001F921FB61F9211248F939F93AF93BF93DB
:105180008091A903811113C08091AA039091AB0370
:10519000A091AC03B091AD034196A11DB11D8093C8
:1051A000AA039093AB03A093AC03B093AD03BF915C
:1051B000AF919F918F911F901FBE1F901895CDB7F3
:1051C000DEB7E2970FB6F894DEBF0FBECDBF84B74F
:1051D000877F84BF0FB6F894A8958091600088619E
:1051E00080936000109260000FBE80E890E00FB6E0
:1051F000F89480936100909361000FBE85B780683A
:1052000085BF85B7806885BF8EE899E090935B0283
:1052100080935A020E9445050E9410068091E20088
:1052200084608093E20078948091D9038823A1F070
:105230001091E9001F709091EC00892F817090FD12
:1052400080E8182B1092E9008091E80083FD0E940D
:105250007B151F701093E90082E084BD93E095BD3B
:105260009AEF97BD80936E0010921C0310921D035D
:1052700010921E0310921F030E948014811102C01D
:105280000E947E130E949D0F80935B010E949D0FE0
:1052900081110E94452E80915B0180915B0194E019
:1052A000811190E090932B0384E0891B80932A0363
:1052B00084E30E94920986EC0E94920987E90E9489
:1052C000920984E90E94920906EC11E0D8018D91BF
:1052D0008D018F3F11F00E949209B1E00E3C1B0737
:1052E000A9F788E0E8E3F3E0DF01282F1D922A9573
:1052F000E9F7E2E2F3E0DF011D928A95E9F780E247
:1053000090E00E943030BC019093210380932003F1
:1053100030E020E0FB01E20FF31F98E04081417094
:1053200041939150D9F7285F3F4F2032310591F7D3
:105330000E94251D811102C00E94301D82E090E074
:105340000E94883180932D0384E090E00E94883190
:10535000182F82E290E00E948831982F812F90933D
:10536000AF038093AE030E94231AEFEBFDE5319764
:10537000F1F700C000000E94231A8091380380FFDB
:1053800008C06FEF7FEF90E080E00E94C4310E9480
:105390000E0F83E090E00E9488310E941E0D0E9453
:1053A000251D811104C00E94301D0E94551546E044
:1053B00050E06CE170E08BE493E00E947831109251
:1053C0004A0380914B038C7F11F40E9455150E9473
:1053D0009D0F811102C00E94482E6091AE0360684B
:1053E0006093AE031091AF0384E090E00E94A63179
:1053F000612F82E290E00E94A6318CE591E09093CB
:10540000A6038093A50358E1652E712C552453946F
:1054100060E4A62E63E0B62E44244394CE010196A8
:105420006C018091D90340E4F42E00E112E1853053
:1054300009F4C4C00E94231A81110E94F006E8E317
:10544000F3E0AEE2B3E010E000E0802EE1908D9159
:105450008E1509F4C6C08E25912CFF24F394982F45
:105460009F2109F4B9C00E949D0F882399F099A645
:105470008AA6EF2081E009F480E08BA70E94FC0659
:105480008160782F9DA78CA749A55AA56BA58DA5EE
:105490000E94C226F801E25DFC4F8081F826F0826E
:1054A0000E94A4140E94C00F90912C03891721F030
:1054B0000E94C00F80932C038091D903843009F09F
:1054C000B0CF83E08093E9008091E80082FFA9CF0C
:1054D0008091E80090E085FF0CC00E94640530E2F6
:1054E000E32EF12C8E010F5F1F4F882309F49AC021
:1054F00091E08091E8008B778093E800992309F48C
:1055000090CF00918D0310918E03898101151105B3
:1055100009F496C08E3F09F01EC18A81833020F0C5
:105520008550833008F017C1EA81EE3008F013C1CE
:10553000F0E0E051FE4C0C941A308091D903843095
:1055400009F42EC00E94A41480914903811105C062
:105550000E940C1080E00E9479084092490310924A
:10556000A9030FB6F894A895609260000FBEF09260
:10557000600083B7817F846083BF83B7816083BF0E
:105580007894889583B78E7F83BF0FB6F894A895DB
:1055900080916000886180936000109260000FBE6F
:1055A0008091D803882351F00E94231AE8E3F3E0A6
:1055B00081918111E8C2AE16BF06D1F78091D9035F
:1055C000853009F4BACF1092B4030E9468150E9486
:1055D000C00F109249032ECF9394FF0C98E09912BC
:1055E0003ECF0F5F1F4F0830110509F02ECF8FEF10
:1055F0008EA78FA718AA0E94FC068160782F9AAB0D
:1056000089AB4EA55FA568A98AA90E94C22648CF8A
:105610008091F100D8018D938D01B1E0EB1AF10872
:1056200009F466CF8091E80085FDF2CF8091E80013
:105630008B778093E8000E946405882399F358CF04
:10564000893009F480C140F5843009F4D8C058F499
:10565000823009F46FC008F0C3C0813009F466C01D
:105660008FEF898378C0863009F4DFC008F4D2C098
:10567000873009F4DDC0883099F78A81813409F4D4
:1056800014C1823409F43EC1803409F064C05B82E5
:105690001C828AEA8D835FC0803109F484C1D0F511
:1056A0008D3009F453C128F48C30D1F680E18A831F
:1056B00052C08E3009F44DC18F3091F680916E0149
:1056C00090916F01892B09F446C0EC80F12CFDE12B
:1056D000EF16F10408F03FC00A811B811027012753
:1056E0001027CE0101964C01E00EF11EC801895D24
:1056F0009C4F0E151F0579F1093D110528F4D401C1
:1057000014966C910E94A631BFEF8B1A9B0A0F5F13
:105710001F4FECCF823109F44BC108F447C18331EC
:1057200009F46FC18E3F09F09BCFFECE1A8289E04B
:105730008B8311C08A81823009F43DC2833089F1A4
:10574000813009F08DCF0E94F0060E9420306B83DB
:105750007C838D839E838091D903843009F061CE50
:105760001091E9001F709091EC00892F817090FDDD
:1057700080E8182B82E08093E9008091E80080FFA8
:105780000CC050E040E060E270E0C6010E94950568
:105790008091E8008E778093E8001F701093E900F5
:1057A00040CE80916E0190916F01892BA1F2809182
:1057B00038038B83809139038C8380913A038D83E6
:1057C00080913B038E8380913C038F8380913D03C6
:1057D000888780913E03898780913F038A87BBCF6A
:1057E0008A81823009F03CCF6B817C818D819E81E2
:1057F0000E94203086E290E00E94A631ACCF4C811E
:105800006B818A810E94AA139827892798279E83F3
:105810008D83A1CF2D813E813227232732274C81D2
:105820006B818A810E94E51296CF0E941C1393CF50
:105830008A81813409F08FCF2B813C8180914B0389
:10584000982F93702115310589F4911110926D01F3
:105850008C7F80934B038D8180934F038E8120E05A
:1058600048856F8190E00E94F00775CF911102C0CA
:1058700010926D018C7F816080934B0347E055E06F
:10588000FA01329685919491FA01659174912617E7
:10589000370739F04C5F5F4FE5E04B315E0781F72A
:1058A00080E060E00E944B08D6CF80914B03982F98
:1058B0009370B9F08695869590E027E035E0F90180
:1058C000329665917491F901A591B4915A2F4B2F9D
:1058D0008617970741F02C5F3F4FF5E02B313F07CC
:1058E00071F750E040E05B834C8380914F038D83E0
:1058F00080914C038E8380914D038F8380914E0362
:10590000888729CF0B811C814EE150E06FEF70E05A
:10591000CE0103960E94713187E095E04BE155E09E
:10592000DE0113966EE1FC012591349102171307F5
:1059300028F4623018F02D933D9362500496481776
:10594000590789F708CF0E94991405CF1A8289ED6B
:10595000EFCE0C8110E00D31110508F0FCCE8A80ED
:105960009B80982489249824CE0101967C01080FFD
:10597000191FC401895D9C4FE016F10609F4EBCEB6
:10598000A9ED8A16910458F40E948831F7018483A6
:10599000BFEF8B1A9B0AEFEFEE1AFE0AEACFD70190
:1059A00014961C92F5CF0E94D512D5CE86E07FCEFC
:1059B000EC80F12CEDE1EE16F10408F0CCCE8A80FB
:1059C0009B809824892498248E010F5F1F4FE00E3E
:1059D000F11EC4018796E016F10609F4BCCE8114CD
:1059E000F3E09F0658F40E948831D80114968C93F6
:1059F000FFEF8F1A9F0A0F5F1F4FEBCFF801148242
:105A0000F7CFEC80F12C2DE1E216F10408F0A3CEE3
:105A10000A811B81102701271027011543E0140775
:105A200008F099CE80E093E0801B910B8E159F05C6
:105A300008F491CECE0101964C01E00EF11EC80192
:105A400087960E151F0509F486CE0115A3E01A07E7
:105A500020F4F40164810E94A631FFEF8F1A9F0A9F
:105A60000F5F1F4FECCF88E0E4E7F1E0DE01919695
:105A700001900D928A95E1F780E2D6011D928A95F8
:105A8000E9F784E0898388E0FE01B196DE0115968E
:105A900001900D928A95E1F75D865DCE8CED89834C
:105AA00082E08A831B821C8256CE8C81682F70E034
:105AB000762F66278B81860F972F911D092E000C5C
:105AC000AA0BBB0B25E0880F991FAA1FBB1F2A95A5
:105AD000D1F7AC01BD01405E5F4F6F4F7F4F48175C
